{
    "contractName": "Whitelist",
    "abi": [
        {
            "inputs": [
                {
                    "internalType": "bytes32",
                    "name": "_merkleRoot",
                    "type": "bytes32"
                }
            ],
            "stateMutability": "nonpayable",
            "type": "constructor"
        },
        {
            "inputs": [
                {
                    "internalType": "bytes32[]",
                    "name": "proof",
                    "type": "bytes32[]"
                },
                {
                    "internalType": "uint64",
                    "name": "maxAllowanceToMint",
                    "type": "uint64"
                }
            ],
            "name": "checkInWhitelist",
            "outputs": [
                {
                    "internalType": "bool",
                    "name": "",
                    "type": "bool"
                }
            ],
            "stateMutability": "view",
            "type": "function"
        },
        {
            "inputs": [],
            "name": "merkleRoot",
            "outputs": [
                {
                    "internalType": "bytes32",
                    "name": "",
                    "type": "bytes32"
                }
            ],
            "stateMutability": "view",
            "type": "function"
        }
    ],
    "bytecode": "608060405234801561001057600080fd5b506040516102f53803806102f583398101604081905261002f91610037565b600055610050565b60006020828403121561004957600080fd5b5051919050565b6102968061005f6000396000f3fe608060405234801561001057600080fd5b50600436106100365760003560e01c80632eb4a7ab1461003b578063e10d3be214610057575b600080fd5b61004460005481565b6040519081526020015b60405180910390f35b61006a610065366004610196565b61007a565b604051901515815260200161004e565b6040805133602082015267ffffffffffffffff831691810191909152600090819060600160405160208183030381529060405280519060200120905060006100f786868080602002602001604051908101604052809392919081815260200183836020028082843760009201829052505492508691506101019050565b9695505050505050565b60008261010e8584610117565b14949350505050565b600081815b845181101561015c576101488286838151811061013b5761013b610223565b6020026020010151610164565b91508061015481610239565b91505061011c565b509392505050565b600081831061018057600082815260208490526040902061018f565b60008381526020839052604090205b9392505050565b6000806000604084860312156101ab57600080fd5b833567ffffffffffffffff808211156101c357600080fd5b818601915086601f8301126101d757600080fd5b8135818111156101e657600080fd5b8760208260051b85010111156101fb57600080fd5b6020928301955093509085013590808216821461021757600080fd5b50809150509250925092565b634e487b7160e01b600052603260045260246000fd5b60006001820161025957634e487b7160e01b600052601160045260246000fd5b506001019056fea264697066735822122005becf4cc3d0e9e95033b90bdbdc5cadd94698de14eb91a2ead06ba14e5cb39064736f6c63430008100033",
    "sourcePath": "e:/BLOCKCHAIN LEARN/CODE/First Solidity Project/MERKLETREES/contracts/Whitelist.sol",
    "compiler": {
        "name": "solc",
        "version": "0.8.16+commit.07a7930e"
    },
    "functionHashes": {
        "checkInWhitelist(bytes32[],uint64)": "e10d3be2",
        "merkleRoot()": "2eb4a7ab"
    },
    "gasEstimates": {
        "creation": {
            "codeDepositCost": "132400",
            "executionCost": "infinite",
            "totalCost": "infinite"
        },
        "external": {
            "checkInWhitelist(bytes32[],uint64)": "infinite",
            "merkleRoot()": "2262"
        }
    }
}